:100000000C945D000C9485000C9485000C94850084
:100010000C9485000C9485000C9485000C9485004C
:100020000C9485000C9485000C9485000C9485003C
:100030000C9485000C9485000C9485000C9485002C
:100040000C9454010C9485000C941F040C945104DE
:100050000C9485000C9485000C9485000C9485000C
:100060000C9485000C94850000000008000201003B
:100070000003040700000000000000000102040863
:100080001020408001020408102001020408102002
:10009000040404040404040402020202020203032E
:1000A0000303030300000000250028002B000000CC
:1000B0000000240027002A00810411241FBECFEF76
:1000C000D8E0DEBFCDBF11E0A0E0B1E0E4EEF3E1A7
:1000D00002C005900D92AA3CB107D9F722E0AAEC24
:1000E000B1E001C01D92A437B207E1F710E0CAEBFE
:1000F000D0E004C02297FE010E94B407C83BD1079C
:10010000C9F70E9480070C94F0090C940000CF936B
:10011000DF9300D000D000D0CDB7DEB768E071E04B
:10012000CE0101960E9415076CE171E0CE010196A7
:100130000E946F076AE271E0CE0101960E946F078C
:10014000BE016F5F7F4F83ED91E00E9416056CE268
:1001500071E080E090E00E94CD016FE271E0CE019D
:1001600001960E942B076BE471E0CE0101960E947C
:100170006F0763E671E083ED91E00E9410056D81E9
:100180007E814AE050E083ED91E00E9496056FE6A3
:1001900071E083ED91E00E949C06882341F0BE014E
:1001A0006F5F7F4F83ED91E00E94160506C061E707
:1001B00071E083ED91E00E9428056DE771E083ED29
:1001C00091E00E949C06882311F061E001C060E08C
:1001D000809106010E94A40268EE73E080E090E046
:1001E0000E94CD0161E771E083ED91E00E94280556
:1001F00068E873E180E090E00E94CD01CE010196B5
:100200000E94A70626960FB6F894DEBF0FBECDBF9C
:10021000DF91CF910895CF93DF93CAE0D0E064E6F9
:1002200070E080E090E00E94CD0161E080910601E5
:100230000E94A40264E670E080E090E00E94CD019C
:1002400060E0809106010E94A402219741F7DF91AE
:10025000CF91089561E0809106010E946B0226E033
:1002600040E855E260E070E083ED91E00E94BD035C
:100270000E940B0166E871E083ED91E00E94280581
:1002800060E273E080E090E00E94CD016DE871E0F3
:1002900083ED91E00E94280569E971E083ED91E02A
:1002A0000E9428050C940B011F920F920FB60F921B
:1002B00011242F933F938F939F93AF93BF9380917C
:1002C000CB019091CC01A091CD01B091CE013091A4
:1002D000CA0123E0230F2D3720F40196A11DB11D83
:1002E00005C026E8230F0296A11DB11D2093CA0167
:1002F0008093CB019093CC01A093CD01B093CE011C
:100300008091CF019091D001A091D101B091D20103
:100310000196A11DB11D8093CF019093D001A093B0
:10032000D101B093D201BF91AF919F918F913F9135
:100330002F910F900FBE0F901F9018952FB7F89424
:100340006091CB017091CC018091CD019091CE0153
:100350002FBF08953FB7F8948091CF019091D001BD
:10036000A091D101B091D20126B5A89B05C02F3F25
:1003700019F00196A11DB11D3FBF6627782F892F67
:100380009A2F620F711D811D911D42E0660F771F2C
:10039000881F991F4A95D1F708958F929F92AF9227
:1003A000BF92CF92DF92EF92FF926B017C010E948D
:1003B000AA014B015C01C114D104E104F104F1F084
:1003C0000E948F070E94AA01681979098A099B096E
:1003D000683E73408105910570F321E0C21AD1088F
:1003E000E108F10888EE880E83E0981EA11CB11C7C
:1003F000C114D104E104F10429F7DDCFFF90EF909F
:10040000DF90CF90BF90AF909F908F900895789499
:1004100084B5826084BD84B5816084BD85B5826009
:1004200085BD85B5816085BDEEE6F0E080818160A7
:100430008083E1E8F0E010828081826080838081A7
:1004400081608083E0E8F0E0808181608083E1EB7F
:10045000F0E0808184608083E0EBF0E08081816067
:100460008083EAE7F0E0808184608083808182601D
:100470008083808181608083808180688083109206
:10048000C1000895833081F028F4813099F08230E2
:10049000A1F008958730A9F08830B9F08430D1F404
:1004A000809180008F7D03C0809180008F77809342
:1004B0008000089584B58F7702C084B58F7D84BD98
:1004C00008958091B0008F7703C08091B0008F7D38
:1004D0008093B0000895CF93DF9390E0FC01E4583F
:1004E000FF4F2491FC01E057FF4F8491882349F18D
:1004F00090E0880F991FFC01E255FF4FA591B49140
:100500008C559F4FFC01C591D4919FB7611108C0D4
:10051000F8948C91209582238C93888182230AC041
:10052000623051F4F8948C91322F309583238C9360
:100530008881822B888304C0F8948C91822B8C93C1
:100540009FBFDF91CF9108950F931F93CF93DF93B8
:100550001F92CDB7DEB7282F30E0F901E859FF4FE1
:100560008491F901E458FF4F1491F901E057FF4FCE
:1005700004910023C9F0882321F069830E9442027C
:100580006981E02FF0E0EE0FFF1FEC55FF4FA591C2
:10059000B4919FB7F8948C91611103C01095812399
:1005A00001C0812B8C939FBF0F90DF91CF911F9142
:1005B0000F910895FC01818D228D90E0805C9F4F0A
:1005C000821B91098F7399270895FC01918D828D6B
:1005D000981731F0828DE80FF11D858D90E0089518
:1005E0008FEF9FEF0895FC01918D828D981761F038
:1005F000828DDF01A80FB11D5D968C91928D9F5F5A
:100600009F73928F90E008958FEF9FEF089587E793
:1006100094E0892B49F080E090E0892B29F00E943A
:10062000770481110C9400000895FC01848DDF0192
:10063000A80FB11DA35ABF4F2C91848D90E0019655
:100640008F739927848FA689B7892C93A089B18944
:100650008C9180648C93938D848D981306C002884E
:10066000F389E02D80818F7D80830895CF93DF9380
:10067000EC01888D8823C9F0EA89FB89808185FD9A
:1006800005C0A889B9898C9186FD0FC00FB607FCFB
:10069000F5CF808185FFF2CFA889B9898C9185FF3C
:1006A000EDCFCE010E941503E7CFDF91CF910895E2
:1006B000CF92DF92FF920F931F93CF93DF931F92FE
:1006C000CDB7DEB76C0181E0D60158968C93589770
:1006D0005B969C915B975C968C915C97981307C096
:1006E0005096ED91FC915197808185FD2EC0F601C9
:1006F000038D10E00F5F1F4F0F731127F02EF601CF
:10070000848DF81211C00FB607FCF9CFD6015096B0
:10071000ED91FC915197808185FFF1CFC6016983EE
:100720000E9415036981EBCF838DE80FF11DE35A19
:10073000FF4F6083D6015B960C935B975296ED91C9
:10074000FC915397808180620CC0D6015696ED9142
:10075000FC91579760835096ED91FC915197808161
:100760008064808381E090E00F90DF91CF911F91B2
:100770000F91FF90DF90CF900895BF92CF92DF92BC
:10078000EF92FF92CF93DF93EC016A017B01B22ECF
:10079000E889F98982E08083411581EE5807610577
:1007A0007105A1F060E079E08DE390E0A70196018A
:1007B0000E949007215031094109510956954795EA
:1007C00037952795211580E1380798F0E889F98950
:1007D000108260E874E88EE190E0A70196010E9423
:1007E0009007215031094109510956954795379590
:1007F0002795EC85FD853083EE85FF852083188E57
:10080000EC89FD89B082EA89FB89808180618083DF
:10081000EA89FB89808188608083EA89FB898081FD
:1008200080688083EA89FB8980818F7D8083DF9166
:10083000CF91FF90EF90DF90CF90BF9008951F92DF
:100840000F920FB60F9211242F938F939F93EF93D4
:10085000FF93E091E301F091E4018081E091E901EF
:10086000F091EA0182FD12C090818091EC018F5FCE
:100870008F732091ED01821751F0E091EC01F0E0CF
:10088000ED52FE4F958F8093EC0101C08081FF9166
:10089000EF919F918F912F910F900FBE0F901F900E
:1008A00018951F920F920FB60F9211242F933F931A
:1008B0004F935F936F937F938F939F93AF93BF9368
:1008C000EF93FF9383ED91E00E941503FF91EF9169
:1008D000BF91AF919F918F917F916F915F914F9158
:1008E0003F912F910F900FBE0F901F90189583EDA1
:1008F00091E00E94DA0221E0892B09F420E0822FA6
:1009000008951092D6011092D50188EE93E0A0E0F0
:10091000B0E08093D7019093D801A093D901B09310
:10092000DA0180EB91E09093D4018093D30185ECC0
:1009300090E09093E0018093DF0184EC90E090934D
:10094000E2018093E10180EC90E09093E4018093D8
:10095000E30181EC90E09093E6018093E50182EC65
:1009600090E09093E8018093E70186EC90E090930B
:10097000EA018093E9011092EC011092ED011092CE
:10098000EE011092EF010895CF92DF92EF92FF9265
:100990000F931F93CF93DF937C016A01EB0100E07B
:1009A00010E00C151D0571F06991D701ED91FC91D6
:1009B0000190F081E02DC7010995892B19F00F5F97
:1009C0001F4FEFCFC801DF91CF911F910F91FF9083
:1009D000EF90DF90CF9008956115710581F0DB01F4
:1009E0000D900020E9F7AD0141505109461B570B0E
:1009F000DC01ED91FC910280F381E02D099480E00F
:100A000090E00895DC01ED91FC91DB0114964D918D
:100A10005C9115976D917C910280F381E02D099492
:100A20000C94EC0460E671E00C94EC040F931F93BB
:100A3000CF93DF93EC010E9402058C01CE010E944E
:100A40001205800F911FDF91CF911F910F91089593
:100A50000F931F93CF93DF93EC010E94EC048C0162
:100A6000CE010E941205800F911FDF91CF911F913F
:100A70000F9108958F929F92AF92BF92DF92EF9263
:100A8000FF920F931F93CF93DF93CDB7DEB7A1975C
:100A90000FB6F894DEBF0FBECDBF7C01F42FD52E6C
:100AA000CB0119A2223008F42AE08E010F5D1F4FFE
:100AB000822E912CA12CB12C6F2F7D2DA50194019C
:100AC0000E949007F22FD32ECA01015011096A30FB
:100AD00014F4E0E301C0E7E3E60FD801EC93232B25
:100AE000242B252B49F7B801C7010E94EC04A196DD
:100AF0000FB6F894DEBF0FBECDBFDF91CF911F912F
:100B00000F91FF90EF90DF90BF90AF909F908F90EC
:100B100008952115310541F4DC01ED91FC9101901E
:100B2000F081E02D642F09940C943A050F931F93E4
:100B3000CF93DF93EC019A01AB0160E070E00E947B
:100B400089058C01CE010E941205800F911FDF9153
:100B5000CF911F910F9108950F931F93CF93DF9320
:100B6000EC010E949E01688779878A879B87E881CC
:100B7000F9810680F781E02DCE01099597FF15C018
:100B80000E949E01088519852A853B85601B710B93
:100B9000820B930B0C811D812E813F8160177107A1
:100BA0008207930720F38FEF9FEFDF91CF911F9183
:100BB0000F9108954F925F926F927F928F929F92C2
:100BC000AF92BF92CF92DF92EF92FF920F931F935B
:100BD000CF93DF934C01EB0186E0849F8001859FDA
:100BE000100D1124060F171FFB01E017F10708F580
:100BF00082819381892B21F13696F7CF40815181F3
:100C000064817581DA01A60FB71F2C91332727FD68
:100C100030958217930711F56F5F7F4F758364835B
:100C2000228133816217730759F03696E017F10776
:100C300028F3C4010E94AC0597FD46C0FE01F6CF23
:100C4000EC1BFD0BF595E7952BEA3AEAE29FC00114
:100C5000E39F900DF29F900D112438C0611571052E
:100C600021F3A480B5809501215031093583248377
:100C7000DA01A20FB31FAC91BB27A7FDB0958A176D
:100C80009B07F9F421153105C9F06A017B01E21ACD
:100C9000F30AE40EF51E412C512CD6016D906D0126
:100CA000D7017D907D01671006C0BFEF4B1A5B0A2C
:100CB0004216530690F34216530699F6B582A48263
:100CC000B4CF232B71F6B1CF8FEF9FEFDF91CF9190
:100CD0001F910F91FF90EF90DF90CF90BF90AF905A
:100CE0009F908F907F906F905F904F900895CF93DB
:100CF000DF9300D000D000D0CDB7DEB7FE01319633
:100D000026E0DF011D922A95E9F77A8369835C83E7
:100D10004B8341E050E0BF010E94DA0521E0892BBE
:100D200009F020E0822F26960FB6F894DEBF0FBEA2
:100D3000CDBFDF91CF910895FB0101900020E9F72D
:100D4000AF0141505109461B570B0C947706FC012B
:100D5000808191810C945008CF93DF93EC018881BE
:100D60009981009711F00E945008198218821D8203
:100D70001C821B821A82DF91CF9108950F931F93DB
:100D8000CF93DF93EC018B016F5F7F4F8881998157
:100D90000E94DF08009731F0998388831B830A83C0
:100DA00081E001C080E0DF91CF911F910F91089504
:100DB000CF93DF93EC0188819981892B29F08A8177
:100DC0009B818617970760F4CE010E94BE06882398
:100DD00041F08C819D81892B19F4E881F981108281
:100DE00081E0DF91CF910895EF92FF920F931F93CF
:100DF000CF93DF93EC017B018A01BA010E94D806F0
:100E0000811104C0CE010E94AC0607C01D830C8373
:100E1000B701888199810E94B209CE01DF91CF91FB
:100E20001F910F91FF90EF900895FC0111821082A5
:100E300013821282158214826115710559F0FB012B
:100E400001900020E9F7AF0141505109461B570BB3
:100E50000C94F4060895CF93DF93EC0161157105AE
:100E600061F0FB0101900020E9F7AF014150510909
:100E7000461B570B0E94F40602C00E94AC06CE012E
:100E8000DF91CF910895EF92FF920F931F93CF932D
:100E9000DF93EC017B010C811D816115710511F45B
:100EA00080E016C04115510591F0040F151FB801DF
:100EB0000E94D8068823A1F3288139818C819D81E5
:100EC000B701820F931F0E94B2091D830C8381E03A
:100ED000DF91CF911F910F91FF90EF9008956115D1
:100EE000710559F0FB0101900020E9F7AF01415075
:100EF0005109461B570B0C94430780E00895089551
:100F00000E9407020E947F070E942A01C7E0D3E0E7
:100F10000E9487002097E1F30E940703F9CF08950C
:100F2000A1E21A2EAA1BBB1BFD010DC0AA1FBB1FED
:100F3000EE1FFF1FA217B307E407F50720F0A21B5F
:100F4000B30BE40BF50B661F771F881F991F1A94CC
:100F500069F760957095809590959B01AC01BD01F6
:100F6000CF010895EE0FFF1F0590F491E02D099435
:100F7000CF93DF938230910510F482E090E0E0910E
:100F80007202F091730220E030E0A0E0B0E0309710
:100F900039F14081518148175907B8F0481759076E
:100FA00071F482819381109729F013969C938E930C
:100FB00012972CC0909373028093720227C0211560
:100FC000310531F04217530718F0A901DB0101C0C8
:100FD000EF019A01BD01DF010280F381E02DD7CF3F
:100FE00021153105F9F0281B390B2430310580F427
:100FF0008A819B816115710521F0FB0193838283B6
:1010000004C09093730280937202FE01329644C032
:10101000FE01E20FF31F819391932250310939832E
:1010200028833AC02091700230917102232B41F441
:1010300020910201309103013093710220937002DC
:1010400020910001309101012115310541F42DB7A6
:101050003EB74091040150910501241B350BE091EE
:101060007002F0917102E217F307A0F42E1B3F0B00
:101070002817390778F0AC014E5F5F4F241735070A
:1010800048F04E0F5F1F509371024093700281939E
:10109000919302C0E0E0F0E0CF01DF91CF9108959D
:1010A000CF93DF93009709F487C0FC013297138236
:1010B0001282C0917202D0917302209781F4208134
:1010C0003181280F391F809170029091710282172F
:1010D000930779F5F0937102E09370026DC0DE0121
:1010E00020E030E0AE17BF0750F412964D915C91AE
:1010F00013979D014115510509F1DA01F3CFB3832F
:10110000A28340815181840F951F8A179B0771F438
:101110008D919C911197840F951F029691838083E6
:1011200012968D919C91139793838283211531059B
:1011300029F4F0937302E09372023EC0D901139632
:10114000FC93EE9312974D915D91A40FB51FEA1792
:10115000FB0779F480819181840F951F0296D90154
:1011600011969C938E938281938113969C938E9378
:101170001297E0E0F0E08A819B81009719F0FE0170
:10118000EC01F9CFCE01029628813981820F931F9D
:1011900020917002309171022817390769F4309755
:1011A00029F4109273021092720202C0138212820A
:1011B000D0937102C0937002DF91CF910895A0E0A7
:1011C000B0E0E5EEF8E00C94BD09EC01CB0120970E
:1011D00019F40E94B807B8C0FE01E60FF71F9E0180
:1011E00022503109E217F30708F4ACC0D9010D9180
:1011F0001C91119706171707B8F00530110508F470
:101200009FC0A801445051094617570708F498C0D9
:1012100002501109061B170B019311936D937C93D8
:10122000CF010E9450088CC05B01A01AB10A4E0188
:10123000800E911EA0917202B0917302612C712CEC
:1012400060E070E0109709F449C0A815B905C9F528
:10125000ED90FC901197670142E0C40ED11CCA14B6
:10126000DB0478F147018A189B08640142E0C40E50
:10127000D11C1296BC9012971396AC91B5E0CB1688
:10128000D10440F0B282A38391828082D9018D93F0
:101290009C9309C00E5F1F4F0E0D1F1DF901118396
:1012A0000083EB2DFA2F6115710531F0DB011396E8
:1012B000FC93EE93129744C0F0937302E093720292
:1012C0003FC06D917C9111976616770608F43B013B
:1012D000BD0112960D90BC91A02DB4CF609170020B
:1012E0007091710268157905E9F468167906D0F4F1
:1012F00040910001509101014115510541F44DB754
:101300005EB76091040170910501461B570BE4170D
:10131000F507C0F4F0937102E0937002F901918334
:1013200080830EC00E94B8077C01009759F0A80185
:10133000BE010E94A909CE010E945008C70104C045
:10134000CE0102C080E090E0CDB7DEB7EEE00C94B5
:10135000D909FB01DC0102C001900D9241505040BF
:10136000D8F70895FB01DC0101900D920020E1F710
:1013700008952F923F924F925F926F927F928F9239
:101380009F92AF92BF92CF92DF92EF92FF920F9314
:101390001F93CF93DF93CDB7DEB7CA1BDB0B0FB61E
:1013A000F894DEBF0FBECDBF09942A8839884888DB
:1013B0005F846E847D848C849B84AA84B984C88471
:1013C000DF80EE80FD800C811B81AA81B981CE0F68
:1013D000D11D0FB6F894DEBF0FBECDBFED0108954D
:0413E000F894FFCFAF
:1013E4000000740280000D0041542B4349505354B3
:1013F4004152543D22544350222C22003139322E82
:101404003136382E38382E333500222C3830004708
:101414004554202F7374617475732E68746D6C2039
:10142400485454502F312E300D0A00486F73743ACB
:10143400203139322E3136382E38382E33350D0AD4
:101444000D0A0041542B43495053454E443D003E40
:101454000041542B434950434C4F53450059455385
:1014640031323332310041542B5253540041542B06
:1014740043574D4F44453D310041542B43574A4156
:10148400503D2253534944222C22500000000000B6
:101494005803C404DA02F302E50236036E616E00F7
:0A14A400696E66006F7666002E0088
:107E0000112484B714BE81FFF0D085E080938100F7
:107E100082E08093C00088E18093C10086E0809377
:107E2000C20080E18093C4008EE0C9D0259A86E02C
:107E300020E33CEF91E0309385002093840096BBD3
:107E4000B09BFECF1D9AA8958150A9F7CC24DD24C4
:107E500088248394B5E0AB2EA1E19A2EF3E0BF2EE7
:107E6000A2D0813461F49FD0082FAFD0023811F036
:107E7000013811F484E001C083E08DD089C08234E0
:107E800011F484E103C0853419F485E0A6D080C0E4
:107E9000853579F488D0E82EFF2485D0082F10E0AE
:107EA000102F00270E291F29000F111F8ED06801E7
:107EB0006FC0863521F484E090D080E0DECF843638
:107EC00009F040C070D06FD0082F6DD080E0C81688
:107ED00080E7D80618F4F601B7BEE895C0E0D1E017
:107EE00062D089930C17E1F7F0E0CF16F0E7DF06D8
:107EF00018F0F601B7BEE89568D007B600FCFDCFD4
:107F0000A601A0E0B1E02C9130E011968C91119780
:107F100090E0982F8827822B932B1296FA010C0160
:107F200087BEE89511244E5F5F4FF1E0A038BF0790
:107F300051F7F601A7BEE89507B600FCFDCF97BE46
:107F4000E89526C08437B1F42ED02DD0F82E2BD052
:107F50003CD0F601EF2C8F010F5F1F4F84911BD097
:107F6000EA94F801C1F70894C11CD11CFA94CF0C13
:107F7000D11C0EC0853739F428D08EE10CD085E9AC
:107F80000AD08FE07ACF813511F488E018D01DD067
:107F900080E101D065CF982F8091C00085FFFCCF94
:107FA0009093C60008958091C00087FFFCCF809118
:107FB000C00084FD01C0A8958091C6000895E0E648
:107FC000F0E098E1908380830895EDDF803219F02E
:107FD00088E0F5DFFFCF84E1DECF1F93182FE3DFCA
:107FE0001150E9F7F2DF1F91089580E0E8DFEE27F6
:047FF000FF270994CA
:027FFE00040479
:0400000300007E007B
:00000001FF
